{
	"Storage.sol": {
		"Storage": {
			"abi": [
				{
					"inputs": [
						{
							"internalType": "string",
							"name": "_name",
							"type": "string"
						},
						{
							"internalType": "string",
							"name": "_lname",
							"type": "string"
						}
					],
					"name": "store",
					"outputs": [],
					"stateMutability": "nonpayable",
					"type": "function"
				},
				{
					"inputs": [],
					"name": "storeName",
					"outputs": [
						{
							"internalType": "string",
							"name": "",
							"type": "string"
						}
					],
					"stateMutability": "view",
					"type": "function"
				},
				{
					"inputs": [],
					"name": "storelname",
					"outputs": [
						{
							"internalType": "string",
							"name": "",
							"type": "string"
						}
					],
					"stateMutability": "view",
					"type": "function"
				}
			],
			"devdoc": {
				"kind": "dev",
				"methods": {},
				"version": 1
			},
			"evm": {
				"assembly": "    /* \"Storage.sol\":58:272  contract Storage {... */\n  mstore(0x40, 0x80)\n  callvalue\n  dup1\n  iszero\n  tag_1\n  jumpi\n  revert(0x00, 0x00)\ntag_1:\n  pop\n  dataSize(sub_0)\n  dup1\n  dataOffset(sub_0)\n  0x00\n  codecopy\n  0x00\n  return\nstop\n\nsub_0: assembly {\n        /* \"Storage.sol\":58:272  contract Storage {... */\n      mstore(0x40, 0x80)\n      callvalue\n      dup1\n      iszero\n      tag_1\n      jumpi\n      revert(0x00, 0x00)\n    tag_1:\n      pop\n      jumpi(tag_2, lt(calldatasize, 0x04))\n      shr(0xe0, calldataload(0x00))\n      dup1\n      0x521936e6\n      eq\n      tag_3\n      jumpi\n      dup1\n      0xb4d1f672\n      eq\n      tag_4\n      jumpi\n      dup1\n      0xf641090c\n      eq\n      tag_5\n      jumpi\n    tag_2:\n      revert(0x00, 0x00)\n        /* \"Storage.sol\":81:104  string public storeName */\n    tag_3:\n      tag_6\n      tag_7\n      jump\t// in\n    tag_6:\n      mload(0x40)\n      tag_8\n      swap2\n      swap1\n      tag_9\n      jump\t// in\n    tag_8:\n      mload(0x40)\n      dup1\n      swap2\n      sub\n      swap1\n      return\n        /* \"Storage.sol\":110:134  string public storelname */\n    tag_4:\n      tag_10\n      tag_11\n      jump\t// in\n    tag_10:\n      mload(0x40)\n      tag_12\n      swap2\n      swap1\n      tag_9\n      jump\t// in\n    tag_12:\n      mload(0x40)\n      dup1\n      swap2\n      sub\n      swap1\n      return\n        /* \"Storage.sol\":141:270  function store(string memory _name, string calldata _lname) public{... */\n    tag_5:\n      tag_13\n      0x04\n      dup1\n      calldatasize\n      sub\n      dup2\n      add\n      swap1\n      tag_14\n      swap2\n      swap1\n      tag_15\n      jump\t// in\n    tag_14:\n      tag_16\n      jump\t// in\n    tag_13:\n      stop\n        /* \"Storage.sol\":81:104  string public storeName */\n    tag_7:\n      0x00\n      dup1\n      sload\n      tag_17\n      swap1\n      tag_18\n      jump\t// in\n    tag_17:\n      dup1\n      0x1f\n      add\n      0x20\n      dup1\n      swap2\n      div\n      mul\n      0x20\n      add\n      mload(0x40)\n      swap1\n      dup2\n      add\n      0x40\n      mstore\n      dup1\n      swap3\n      swap2\n      swap1\n      dup2\n      dup2\n      mstore\n      0x20\n      add\n      dup3\n      dup1\n      sload\n      tag_19\n      swap1\n      tag_18\n      jump\t// in\n    tag_19:\n      dup1\n      iszero\n      tag_20\n      jumpi\n      dup1\n      0x1f\n      lt\n      tag_21\n      jumpi\n      0x0100\n      dup1\n      dup4\n      sload\n      div\n      mul\n      dup4\n      mstore\n      swap2\n      0x20\n      add\n      swap2\n      jump(tag_20)\n    tag_21:\n      dup3\n      add\n      swap2\n      swap1\n      0x00\n      mstore\n      keccak256(0x00, 0x20)\n      swap1\n    tag_22:\n      dup2\n      sload\n      dup2\n      mstore\n      swap1\n      0x01\n      add\n      swap1\n      0x20\n      add\n      dup1\n      dup4\n      gt\n      tag_22\n      jumpi\n      dup3\n      swap1\n      sub\n      0x1f\n      and\n      dup3\n      add\n      swap2\n    tag_20:\n      pop\n      pop\n      pop\n      pop\n      pop\n      dup2\n      jump\t// out\n        /* \"Storage.sol\":110:134  string public storelname */\n    tag_11:\n      0x01\n      dup1\n      sload\n      tag_23\n      swap1\n      tag_18\n      jump\t// in\n    tag_23:\n      dup1\n      0x1f\n      add\n      0x20\n      dup1\n      swap2\n      div\n      mul\n      0x20\n      add\n      mload(0x40)\n      swap1\n      dup2\n      add\n      0x40\n      mstore\n      dup1\n      swap3\n      swap2\n      swap1\n      dup2\n      dup2\n      mstore\n      0x20\n      add\n      dup3\n      dup1\n      sload\n      tag_24\n      swap1\n      tag_18\n      jump\t// in\n    tag_24:\n      dup1\n      iszero\n      tag_25\n      jumpi\n      dup1\n      0x1f\n      lt\n      tag_26\n      jumpi\n      0x0100\n      dup1\n      dup4\n      sload\n      div\n      mul\n      dup4\n      mstore\n      swap2\n      0x20\n      add\n      swap2\n      jump(tag_25)\n    tag_26:\n      dup3\n      add\n      swap2\n      swap1\n      0x00\n      mstore\n      keccak256(0x00, 0x20)\n      swap1\n    tag_27:\n      dup2\n      sload\n      dup2\n      mstore\n      swap1\n      0x01\n      add\n      swap1\n      0x20\n      add\n      dup1\n      dup4\n      gt\n      tag_27\n      jumpi\n      dup3\n      swap1\n      sub\n      0x1f\n      and\n      dup3\n      add\n      swap2\n    tag_25:\n      pop\n      pop\n      pop\n      pop\n      pop\n      dup2\n      jump\t// out\n        /* \"Storage.sol\":141:270  function store(string memory _name, string calldata _lname) public{... */\n    tag_16:\n        /* \"Storage.sol\":229:234  _name */\n      dup3\n        /* \"Storage.sol\":217:226  storeName */\n      0x00\n        /* \"Storage.sol\":217:234  storeName = _name */\n      swap1\n      dup2\n      tag_29\n      swap2\n      swap1\n      tag_30\n      jump\t// in\n    tag_29:\n      pop\n        /* \"Storage.sol\":257:263  _lname */\n      dup2\n      dup2\n        /* \"Storage.sol\":244:254  storelname */\n      0x01\n        /* \"Storage.sol\":244:263  storelname = _lname */\n      swap2\n      dup3\n      tag_31\n      swap3\n      swap2\n      swap1\n      tag_32\n      jump\t// in\n    tag_31:\n      pop\n        /* \"Storage.sol\":141:270  function store(string memory _name, string calldata _lname) public{... */\n      pop\n      pop\n      pop\n      jump\t// out\n        /* \"#utility.yul\":7:106   */\n    tag_33:\n        /* \"#utility.yul\":59:65   */\n      0x00\n        /* \"#utility.yul\":93:98   */\n      dup2\n        /* \"#utility.yul\":87:99   */\n      mload\n        /* \"#utility.yul\":77:99   */\n      swap1\n      pop\n        /* \"#utility.yul\":7:106   */\n      swap2\n      swap1\n      pop\n      jump\t// out\n        /* \"#utility.yul\":112:281   */\n    tag_34:\n        /* \"#utility.yul\":196:207   */\n      0x00\n        /* \"#utility.yul\":230:236   */\n      dup3\n        /* \"#utility.yul\":225:228   */\n      dup3\n        /* \"#utility.yul\":218:237   */\n      mstore\n        /* \"#utility.yul\":270:274   */\n      0x20\n        /* \"#utility.yul\":265:268   */\n      dup3\n        /* \"#utility.yul\":261:275   */\n      add\n        /* \"#utility.yul\":246:275   */\n      swap1\n      pop\n        /* \"#utility.yul\":112:281   */\n      swap3\n      swap2\n      pop\n      pop\n      jump\t// out\n        /* \"#utility.yul\":287:426   */\n    tag_35:\n        /* \"#utility.yul\":376:382   */\n      dup3\n        /* \"#utility.yul\":371:374   */\n      dup2\n        /* \"#utility.yul\":366:369   */\n      dup4\n        /* \"#utility.yul\":360:383   */\n      mcopy\n        /* \"#utility.yul\":417:418   */\n      0x00\n        /* \"#utility.yul\":408:414   */\n      dup4\n        /* \"#utility.yul\":403:406   */\n      dup4\n        /* \"#utility.yul\":399:415   */\n      add\n        /* \"#utility.yul\":392:419   */\n      mstore\n        /* \"#utility.yul\":287:426   */\n      pop\n      pop\n      pop\n      jump\t// out\n        /* \"#utility.yul\":432:534   */\n    tag_36:\n        /* \"#utility.yul\":473:479   */\n      0x00\n        /* \"#utility.yul\":524:526   */\n      0x1f\n        /* \"#utility.yul\":520:527   */\n      not\n        /* \"#utility.yul\":515:517   */\n      0x1f\n        /* \"#utility.yul\":508:513   */\n      dup4\n        /* \"#utility.yul\":504:518   */\n      add\n        /* \"#utility.yul\":500:528   */\n      and\n        /* \"#utility.yul\":490:528   */\n      swap1\n      pop\n        /* \"#utility.yul\":432:534   */\n      swap2\n      swap1\n      pop\n      jump\t// out\n        /* \"#utility.yul\":540:917   */\n    tag_37:\n        /* \"#utility.yul\":628:631   */\n      0x00\n        /* \"#utility.yul\":656:695   */\n      tag_77\n        /* \"#utility.yul\":689:694   */\n      dup3\n        /* \"#utility.yul\":656:695   */\n      tag_33\n      jump\t// in\n    tag_77:\n        /* \"#utility.yul\":711:782   */\n      tag_78\n        /* \"#utility.yul\":775:781   */\n      dup2\n        /* \"#utility.yul\":770:773   */\n      dup6\n        /* \"#utility.yul\":711:782   */\n      tag_34\n      jump\t// in\n    tag_78:\n        /* \"#utility.yul\":704:782   */\n      swap4\n      pop\n        /* \"#utility.yul\":791:856   */\n      tag_79\n        /* \"#utility.yul\":849:855   */\n      dup2\n        /* \"#utility.yul\":844:847   */\n      dup6\n        /* \"#utility.yul\":837:841   */\n      0x20\n        /* \"#utility.yul\":830:835   */\n      dup7\n        /* \"#utility.yul\":826:842   */\n      add\n        /* \"#utility.yul\":791:856   */\n      tag_35\n      jump\t// in\n    tag_79:\n        /* \"#utility.yul\":881:910   */\n      tag_80\n        /* \"#utility.yul\":903:909   */\n      dup2\n        /* \"#utility.yul\":881:910   */\n      tag_36\n      jump\t// in\n    tag_80:\n        /* \"#utility.yul\":876:879   */\n      dup5\n        /* \"#utility.yul\":872:911   */\n      add\n        /* \"#utility.yul\":865:911   */\n      swap2\n      pop\n        /* \"#utility.yul\":632:917   */\n      pop\n        /* \"#utility.yul\":540:917   */\n      swap3\n      swap2\n      pop\n      pop\n      jump\t// out\n        /* \"#utility.yul\":923:1236   */\n    tag_9:\n        /* \"#utility.yul\":1036:1040   */\n      0x00\n        /* \"#utility.yul\":1074:1076   */\n      0x20\n        /* \"#utility.yul\":1063:1072   */\n      dup3\n        /* \"#utility.yul\":1059:1077   */\n      add\n        /* \"#utility.yul\":1051:1077   */\n      swap1\n      pop\n        /* \"#utility.yul\":1123:1132   */\n      dup2\n        /* \"#utility.yul\":1117:1121   */\n      dup2\n        /* \"#utility.yul\":1113:1133   */\n      sub\n        /* \"#utility.yul\":1109:1110   */\n      0x00\n        /* \"#utility.yul\":1098:1107   */\n      dup4\n        /* \"#utility.yul\":1094:1111   */\n      add\n        /* \"#utility.yul\":1087:1134   */\n      mstore\n        /* \"#utility.yul\":1151:1229   */\n      tag_82\n        /* \"#utility.yul\":1224:1228   */\n      dup2\n        /* \"#utility.yul\":1215:1221   */\n      dup5\n        /* \"#utility.yul\":1151:1229   */\n      tag_37\n      jump\t// in\n    tag_82:\n        /* \"#utility.yul\":1143:1229   */\n      swap1\n      pop\n        /* \"#utility.yul\":923:1236   */\n      swap3\n      swap2\n      pop\n      pop\n      jump\t// out\n        /* \"#utility.yul\":1242:1317   */\n    tag_38:\n        /* \"#utility.yul\":1275:1281   */\n      0x00\n        /* \"#utility.yul\":1308:1310   */\n      0x40\n        /* \"#utility.yul\":1302:1311   */\n      mload\n        /* \"#utility.yul\":1292:1311   */\n      swap1\n      pop\n        /* \"#utility.yul\":1242:1317   */\n      swap1\n      jump\t// out\n        /* \"#utility.yul\":1323:1440   */\n    tag_39:\n        /* \"#utility.yul\":1432:1433   */\n      0x00\n        /* \"#utility.yul\":1429:1430   */\n      0x00\n        /* \"#utility.yul\":1422:1434   */\n      revert\n        /* \"#utility.yul\":1446:1563   */\n    tag_40:\n        /* \"#utility.yul\":1555:1556   */\n      0x00\n        /* \"#utility.yul\":1552:1553   */\n      0x00\n        /* \"#utility.yul\":1545:1557   */\n      revert\n        /* \"#utility.yul\":1569:1686   */\n    tag_41:\n        /* \"#utility.yul\":1678:1679   */\n      0x00\n        /* \"#utility.yul\":1675:1676   */\n      0x00\n        /* \"#utility.yul\":1668:1680   */\n      revert\n        /* \"#utility.yul\":1692:1809   */\n    tag_42:\n        /* \"#utility.yul\":1801:1802   */\n      0x00\n        /* \"#utility.yul\":1798:1799   */\n      0x00\n        /* \"#utility.yul\":1791:1803   */\n      revert\n        /* \"#utility.yul\":1815:1995   */\n    tag_43:\n        /* \"#utility.yul\":1863:1940   */\n      0x4e487b7100000000000000000000000000000000000000000000000000000000\n        /* \"#utility.yul\":1860:1861   */\n      0x00\n        /* \"#utility.yul\":1853:1941   */\n      mstore\n        /* \"#utility.yul\":1960:1964   */\n      0x41\n        /* \"#utility.yul\":1957:1958   */\n      0x04\n        /* \"#utility.yul\":1950:1965   */\n      mstore\n        /* \"#utility.yul\":1984:1988   */\n      0x24\n        /* \"#utility.yul\":1981:1982   */\n      0x00\n        /* \"#utility.yul\":1974:1989   */\n      revert\n        /* \"#utility.yul\":2001:2282   */\n    tag_44:\n        /* \"#utility.yul\":2084:2111   */\n      tag_90\n        /* \"#utility.yul\":2106:2110   */\n      dup3\n        /* \"#utility.yul\":2084:2111   */\n      tag_36\n      jump\t// in\n    tag_90:\n        /* \"#utility.yul\":2076:2082   */\n      dup2\n        /* \"#utility.yul\":2072:2112   */\n      add\n        /* \"#utility.yul\":2214:2220   */\n      dup2\n        /* \"#utility.yul\":2202:2212   */\n      dup2\n        /* \"#utility.yul\":2199:2221   */\n      lt\n        /* \"#utility.yul\":2178:2196   */\n      0xffffffffffffffff\n        /* \"#utility.yul\":2166:2176   */\n      dup3\n        /* \"#utility.yul\":2163:2197   */\n      gt\n        /* \"#utility.yul\":2160:2222   */\n      or\n        /* \"#utility.yul\":2157:2245   */\n      iszero\n      tag_91\n      jumpi\n        /* \"#utility.yul\":2225:2243   */\n      tag_92\n      tag_43\n      jump\t// in\n    tag_92:\n        /* \"#utility.yul\":2157:2245   */\n    tag_91:\n        /* \"#utility.yul\":2265:2275   */\n      dup1\n        /* \"#utility.yul\":2261:2263   */\n      0x40\n        /* \"#utility.yul\":2254:2276   */\n      mstore\n        /* \"#utility.yul\":2044:2282   */\n      pop\n        /* \"#utility.yul\":2001:2282   */\n      pop\n      pop\n      jump\t// out\n        /* \"#utility.yul\":2288:2417   */\n    tag_45:\n        /* \"#utility.yul\":2322:2328   */\n      0x00\n        /* \"#utility.yul\":2349:2369   */\n      tag_94\n      tag_38\n      jump\t// in\n    tag_94:\n        /* \"#utility.yul\":2339:2369   */\n      swap1\n      pop\n        /* \"#utility.yul\":2378:2411   */\n      tag_95\n        /* \"#utility.yul\":2406:2410   */\n      dup3\n        /* \"#utility.yul\":2398:2404   */\n      dup3\n        /* \"#utility.yul\":2378:2411   */\n      tag_44\n      jump\t// in\n    tag_95:\n        /* \"#utility.yul\":2288:2417   */\n      swap2\n      swap1\n      pop\n      jump\t// out\n        /* \"#utility.yul\":2423:2731   */\n    tag_46:\n        /* \"#utility.yul\":2485:2489   */\n      0x00\n        /* \"#utility.yul\":2575:2593   */\n      0xffffffffffffffff\n        /* \"#utility.yul\":2567:2573   */\n      dup3\n        /* \"#utility.yul\":2564:2594   */\n      gt\n        /* \"#utility.yul\":2561:2617   */\n      iszero\n      tag_97\n      jumpi\n        /* \"#utility.yul\":2597:2615   */\n      tag_98\n      tag_43\n      jump\t// in\n    tag_98:\n        /* \"#utility.yul\":2561:2617   */\n    tag_97:\n        /* \"#utility.yul\":2635:2664   */\n      tag_99\n        /* \"#utility.yul\":2657:2663   */\n      dup3\n        /* \"#utility.yul\":2635:2664   */\n      tag_36\n      jump\t// in\n    tag_99:\n        /* \"#utility.yul\":2627:2664   */\n      swap1\n      pop\n        /* \"#utility.yul\":2719:2723   */\n      0x20\n        /* \"#utility.yul\":2713:2717   */\n      dup2\n        /* \"#utility.yul\":2709:2724   */\n      add\n        /* \"#utility.yul\":2701:2724   */\n      swap1\n      pop\n        /* \"#utility.yul\":2423:2731   */\n      swap2\n      swap1\n      pop\n      jump\t// out\n        /* \"#utility.yul\":2737:2885   */\n    tag_47:\n        /* \"#utility.yul\":2835:2841   */\n      dup3\n        /* \"#utility.yul\":2830:2833   */\n      dup2\n        /* \"#utility.yul\":2825:2828   */\n      dup4\n        /* \"#utility.yul\":2812:2842   */\n      calldatacopy\n        /* \"#utility.yul\":2876:2877   */\n      0x00\n        /* \"#utility.yul\":2867:2873   */\n      dup4\n        /* \"#utility.yul\":2862:2865   */\n      dup4\n        /* \"#utility.yul\":2858:2874   */\n      add\n        /* \"#utility.yul\":2851:2878   */\n      mstore\n        /* \"#utility.yul\":2737:2885   */\n      pop\n      pop\n      pop\n      jump\t// out\n        /* \"#utility.yul\":2891:3316   */\n    tag_48:\n        /* \"#utility.yul\":2969:2974   */\n      0x00\n        /* \"#utility.yul\":2994:3060   */\n      tag_102\n        /* \"#utility.yul\":3010:3059   */\n      tag_103\n        /* \"#utility.yul\":3052:3058   */\n      dup5\n        /* \"#utility.yul\":3010:3059   */\n      tag_46\n      jump\t// in\n    tag_103:\n        /* \"#utility.yul\":2994:3060   */\n      tag_45\n      jump\t// in\n    tag_102:\n        /* \"#utility.yul\":2985:3060   */\n      swap1\n      pop\n        /* \"#utility.yul\":3083:3089   */\n      dup3\n        /* \"#utility.yul\":3076:3081   */\n      dup2\n        /* \"#utility.yul\":3069:3090   */\n      mstore\n        /* \"#utility.yul\":3121:3125   */\n      0x20\n        /* \"#utility.yul\":3114:3119   */\n      dup2\n        /* \"#utility.yul\":3110:3126   */\n      add\n        /* \"#utility.yul\":3159:3162   */\n      dup5\n        /* \"#utility.yul\":3150:3156   */\n      dup5\n        /* \"#utility.yul\":3145:3148   */\n      dup5\n        /* \"#utility.yul\":3141:3157   */\n      add\n        /* \"#utility.yul\":3138:3163   */\n      gt\n        /* \"#utility.yul\":3135:3247   */\n      iszero\n      tag_104\n      jumpi\n        /* \"#utility.yul\":3166:3245   */\n      tag_105\n      tag_42\n      jump\t// in\n    tag_105:\n        /* \"#utility.yul\":3135:3247   */\n    tag_104:\n        /* \"#utility.yul\":3256:3310   */\n      tag_106\n        /* \"#utility.yul\":3303:3309   */\n      dup5\n        /* \"#utility.yul\":3298:3301   */\n      dup3\n        /* \"#utility.yul\":3293:3296   */\n      dup6\n        /* \"#utility.yul\":3256:3310   */\n      tag_47\n      jump\t// in\n    tag_106:\n        /* \"#utility.yul\":2975:3316   */\n      pop\n        /* \"#utility.yul\":2891:3316   */\n      swap4\n      swap3\n      pop\n      pop\n      pop\n      jump\t// out\n        /* \"#utility.yul\":3336:3676   */\n    tag_49:\n        /* \"#utility.yul\":3392:3397   */\n      0x00\n        /* \"#utility.yul\":3441:3444   */\n      dup3\n        /* \"#utility.yul\":3434:3438   */\n      0x1f\n        /* \"#utility.yul\":3426:3432   */\n      dup4\n        /* \"#utility.yul\":3422:3439   */\n      add\n        /* \"#utility.yul\":3418:3445   */\n      slt\n        /* \"#utility.yul\":3408:3530   */\n      tag_108\n      jumpi\n        /* \"#utility.yul\":3449:3528   */\n      tag_109\n      tag_41\n      jump\t// in\n    tag_109:\n        /* \"#utility.yul\":3408:3530   */\n    tag_108:\n        /* \"#utility.yul\":3566:3572   */\n      dup2\n        /* \"#utility.yul\":3553:3573   */\n      calldataload\n        /* \"#utility.yul\":3591:3670   */\n      tag_110\n        /* \"#utility.yul\":3666:3669   */\n      dup5\n        /* \"#utility.yul\":3658:3664   */\n      dup3\n        /* \"#utility.yul\":3651:3655   */\n      0x20\n        /* \"#utility.yul\":3643:3649   */\n      dup7\n        /* \"#utility.yul\":3639:3656   */\n      add\n        /* \"#utility.yul\":3591:3670   */\n      tag_48\n      jump\t// in\n    tag_110:\n        /* \"#utility.yul\":3582:3670   */\n      swap2\n      pop\n        /* \"#utility.yul\":3398:3676   */\n      pop\n        /* \"#utility.yul\":3336:3676   */\n      swap3\n      swap2\n      pop\n      pop\n      jump\t// out\n        /* \"#utility.yul\":3682:3799   */\n    tag_50:\n        /* \"#utility.yul\":3791:3792   */\n      0x00\n        /* \"#utility.yul\":3788:3789   */\n      0x00\n        /* \"#utility.yul\":3781:3793   */\n      revert\n        /* \"#utility.yul\":3805:3922   */\n    tag_51:\n        /* \"#utility.yul\":3914:3915   */\n      0x00\n        /* \"#utility.yul\":3911:3912   */\n      0x00\n        /* \"#utility.yul\":3904:3916   */\n      revert\n        /* \"#utility.yul\":3942:4495   */\n    tag_52:\n        /* \"#utility.yul\":4000:4008   */\n      0x00\n        /* \"#utility.yul\":4010:4016   */\n      0x00\n        /* \"#utility.yul\":4060:4063   */\n      dup4\n        /* \"#utility.yul\":4053:4057   */\n      0x1f\n        /* \"#utility.yul\":4045:4051   */\n      dup5\n        /* \"#utility.yul\":4041:4058   */\n      add\n        /* \"#utility.yul\":4037:4064   */\n      slt\n        /* \"#utility.yul\":4027:4149   */\n      tag_114\n      jumpi\n        /* \"#utility.yul\":4068:4147   */\n      tag_115\n      tag_41\n      jump\t// in\n    tag_115:\n        /* \"#utility.yul\":4027:4149   */\n    tag_114:\n        /* \"#utility.yul\":4181:4187   */\n      dup3\n        /* \"#utility.yul\":4168:4188   */\n      calldataload\n        /* \"#utility.yul\":4158:4188   */\n      swap1\n      pop\n        /* \"#utility.yul\":4211:4229   */\n      0xffffffffffffffff\n        /* \"#utility.yul\":4203:4209   */\n      dup2\n        /* \"#utility.yul\":4200:4230   */\n      gt\n        /* \"#utility.yul\":4197:4314   */\n      iszero\n      tag_116\n      jumpi\n        /* \"#utility.yul\":4233:4312   */\n      tag_117\n      tag_50\n      jump\t// in\n    tag_117:\n        /* \"#utility.yul\":4197:4314   */\n    tag_116:\n        /* \"#utility.yul\":4347:4351   */\n      0x20\n        /* \"#utility.yul\":4339:4345   */\n      dup4\n        /* \"#utility.yul\":4335:4352   */\n      add\n        /* \"#utility.yul\":4323:4352   */\n      swap2\n      pop\n        /* \"#utility.yul\":4401:4404   */\n      dup4\n        /* \"#utility.yul\":4393:4397   */\n      0x01\n        /* \"#utility.yul\":4385:4391   */\n      dup3\n        /* \"#utility.yul\":4381:4398   */\n      mul\n        /* \"#utility.yul\":4371:4379   */\n      dup4\n        /* \"#utility.yul\":4367:4399   */\n      add\n        /* \"#utility.yul\":4364:4405   */\n      gt\n        /* \"#utility.yul\":4361:4489   */\n      iszero\n      tag_118\n      jumpi\n        /* \"#utility.yul\":4408:4487   */\n      tag_119\n      tag_51\n      jump\t// in\n    tag_119:\n        /* \"#utility.yul\":4361:4489   */\n    tag_118:\n        /* \"#utility.yul\":3942:4495   */\n      swap3\n      pop\n      swap3\n      swap1\n      pop\n      jump\t// out\n        /* \"#utility.yul\":4501:5355   */\n    tag_15:\n        /* \"#utility.yul\":4591:4597   */\n      0x00\n        /* \"#utility.yul\":4599:4605   */\n      0x00\n        /* \"#utility.yul\":4607:4613   */\n      0x00\n        /* \"#utility.yul\":4656:4658   */\n      0x40\n        /* \"#utility.yul\":4644:4653   */\n      dup5\n        /* \"#utility.yul\":4635:4642   */\n      dup7\n        /* \"#utility.yul\":4631:4654   */\n      sub\n        /* \"#utility.yul\":4627:4659   */\n      slt\n        /* \"#utility.yul\":4624:4743   */\n      iszero\n      tag_121\n      jumpi\n        /* \"#utility.yul\":4662:4741   */\n      tag_122\n      tag_39\n      jump\t// in\n    tag_122:\n        /* \"#utility.yul\":4624:4743   */\n    tag_121:\n        /* \"#utility.yul\":4810:4811   */\n      0x00\n        /* \"#utility.yul\":4799:4808   */\n      dup5\n        /* \"#utility.yul\":4795:4812   */\n      add\n        /* \"#utility.yul\":4782:4813   */\n      calldataload\n        /* \"#utility.yul\":4840:4858   */\n      0xffffffffffffffff\n        /* \"#utility.yul\":4832:4838   */\n      dup2\n        /* \"#utility.yul\":4829:4859   */\n      gt\n        /* \"#utility.yul\":4826:4943   */\n      iszero\n      tag_123\n      jumpi\n        /* \"#utility.yul\":4862:4941   */\n      tag_124\n      tag_40\n      jump\t// in\n    tag_124:\n        /* \"#utility.yul\":4826:4943   */\n    tag_123:\n        /* \"#utility.yul\":4967:5030   */\n      tag_125\n        /* \"#utility.yul\":5022:5029   */\n      dup7\n        /* \"#utility.yul\":5013:5019   */\n      dup3\n        /* \"#utility.yul\":5002:5011   */\n      dup8\n        /* \"#utility.yul\":4998:5020   */\n      add\n        /* \"#utility.yul\":4967:5030   */\n      tag_49\n      jump\t// in\n    tag_125:\n        /* \"#utility.yul\":4957:5030   */\n      swap4\n      pop\n        /* \"#utility.yul\":4753:5040   */\n      pop\n        /* \"#utility.yul\":5107:5109   */\n      0x20\n        /* \"#utility.yul\":5096:5105   */\n      dup5\n        /* \"#utility.yul\":5092:5110   */\n      add\n        /* \"#utility.yul\":5079:5111   */\n      calldataload\n        /* \"#utility.yul\":5138:5156   */\n      0xffffffffffffffff\n        /* \"#utility.yul\":5130:5136   */\n      dup2\n        /* \"#utility.yul\":5127:5157   */\n      gt\n        /* \"#utility.yul\":5124:5241   */\n      iszero\n      tag_126\n      jumpi\n        /* \"#utility.yul\":5160:5239   */\n      tag_127\n      tag_40\n      jump\t// in\n    tag_127:\n        /* \"#utility.yul\":5124:5241   */\n    tag_126:\n        /* \"#utility.yul\":5273:5338   */\n      tag_128\n        /* \"#utility.yul\":5330:5337   */\n      dup7\n        /* \"#utility.yul\":5321:5327   */\n      dup3\n        /* \"#utility.yul\":5310:5319   */\n      dup8\n        /* \"#utility.yul\":5306:5328   */\n      add\n        /* \"#utility.yul\":5273:5338   */\n      tag_52\n      jump\t// in\n    tag_128:\n        /* \"#utility.yul\":5255:5338   */\n      swap3\n      pop\n      swap3\n      pop\n        /* \"#utility.yul\":5050:5348   */\n      pop\n        /* \"#utility.yul\":4501:5355   */\n      swap3\n      pop\n      swap3\n      pop\n      swap3\n      jump\t// out\n        /* \"#utility.yul\":5361:5541   */\n    tag_53:\n        /* \"#utility.yul\":5409:5486   */\n      0x4e487b7100000000000000000000000000000000000000000000000000000000\n        /* \"#utility.yul\":5406:5407   */\n      0x00\n        /* \"#utility.yul\":5399:5487   */\n      mstore\n        /* \"#utility.yul\":5506:5510   */\n      0x22\n        /* \"#utility.yul\":5503:5504   */\n      0x04\n        /* \"#utility.yul\":5496:5511   */\n      mstore\n        /* \"#utility.yul\":5530:5534   */\n      0x24\n        /* \"#utility.yul\":5527:5528   */\n      0x00\n        /* \"#utility.yul\":5520:5535   */\n      revert\n        /* \"#utility.yul\":5547:5867   */\n    tag_18:\n        /* \"#utility.yul\":5591:5597   */\n      0x00\n        /* \"#utility.yul\":5628:5629   */\n      0x02\n        /* \"#utility.yul\":5622:5626   */\n      dup3\n        /* \"#utility.yul\":5618:5630   */\n      div\n        /* \"#utility.yul\":5608:5630   */\n      swap1\n      pop\n        /* \"#utility.yul\":5675:5676   */\n      0x01\n        /* \"#utility.yul\":5669:5673   */\n      dup3\n        /* \"#utility.yul\":5665:5677   */\n      and\n        /* \"#utility.yul\":5696:5714   */\n      dup1\n        /* \"#utility.yul\":5686:5767   */\n      tag_131\n      jumpi\n        /* \"#utility.yul\":5752:5756   */\n      0x7f\n        /* \"#utility.yul\":5744:5750   */\n      dup3\n        /* \"#utility.yul\":5740:5757   */\n      and\n        /* \"#utility.yul\":5730:5757   */\n      swap2\n      pop\n        /* \"#utility.yul\":5686:5767   */\n    tag_131:\n        /* \"#utility.yul\":5814:5816   */\n      0x20\n        /* \"#utility.yul\":5806:5812   */\n      dup3\n        /* \"#utility.yul\":5803:5817   */\n      lt\n        /* \"#utility.yul\":5783:5801   */\n      dup2\n        /* \"#utility.yul\":5780:5818   */\n      sub\n        /* \"#utility.yul\":5777:5861   */\n      tag_132\n      jumpi\n        /* \"#utility.yul\":5833:5851   */\n      tag_133\n      tag_53\n      jump\t// in\n    tag_133:\n        /* \"#utility.yul\":5777:5861   */\n    tag_132:\n        /* \"#utility.yul\":5598:5867   */\n      pop\n        /* \"#utility.yul\":5547:5867   */\n      swap2\n      swap1\n      pop\n      jump\t// out\n        /* \"#utility.yul\":5873:6014   */\n    tag_54:\n        /* \"#utility.yul\":5922:5926   */\n      0x00\n        /* \"#utility.yul\":5945:5948   */\n      dup2\n        /* \"#utility.yul\":5937:5948   */\n      swap1\n      pop\n        /* \"#utility.yul\":5968:5971   */\n      dup2\n        /* \"#utility.yul\":5965:5966   */\n      0x00\n        /* \"#utility.yul\":5958:5972   */\n      mstore\n        /* \"#utility.yul\":6002:6006   */\n      0x20\n        /* \"#utility.yul\":5999:6000   */\n      0x00\n        /* \"#utility.yul\":5989:6007   */\n      keccak256\n        /* \"#utility.yul\":5981:6007   */\n      swap1\n      pop\n        /* \"#utility.yul\":5873:6014   */\n      swap2\n      swap1\n      pop\n      jump\t// out\n        /* \"#utility.yul\":6020:6113   */\n    tag_55:\n        /* \"#utility.yul\":6057:6063   */\n      0x00\n        /* \"#utility.yul\":6104:6106   */\n      0x20\n        /* \"#utility.yul\":6099:6101   */\n      0x1f\n        /* \"#utility.yul\":6092:6097   */\n      dup4\n        /* \"#utility.yul\":6088:6102   */\n      add\n        /* \"#utility.yul\":6084:6107   */\n      div\n        /* \"#utility.yul\":6074:6107   */\n      swap1\n      pop\n        /* \"#utility.yul\":6020:6113   */\n      swap2\n      swap1\n      pop\n      jump\t// out\n        /* \"#utility.yul\":6119:6226   */\n    tag_56:\n        /* \"#utility.yul\":6163:6171   */\n      0x00\n        /* \"#utility.yul\":6213:6218   */\n      dup3\n        /* \"#utility.yul\":6207:6211   */\n      dup3\n        /* \"#utility.yul\":6203:6219   */\n      shl\n        /* \"#utility.yul\":6182:6219   */\n      swap1\n      pop\n        /* \"#utility.yul\":6119:6226   */\n      swap3\n      swap2\n      pop\n      pop\n      jump\t// out\n        /* \"#utility.yul\":6232:6625   */\n    tag_57:\n        /* \"#utility.yul\":6301:6307   */\n      0x00\n        /* \"#utility.yul\":6351:6352   */\n      0x08\n        /* \"#utility.yul\":6339:6349   */\n      dup4\n        /* \"#utility.yul\":6335:6353   */\n      mul\n        /* \"#utility.yul\":6374:6471   */\n      tag_138\n        /* \"#utility.yul\":6404:6470   */\n      0xffffffffffffffffffffffffffffffffffffffffffffffffffffffffffffffff\n        /* \"#utility.yul\":6393:6402   */\n      dup3\n        /* \"#utility.yul\":6374:6471   */\n      tag_56\n      jump\t// in\n    tag_138:\n        /* \"#utility.yul\":6492:6531   */\n      tag_139\n        /* \"#utility.yul\":6522:6530   */\n      dup7\n        /* \"#utility.yul\":6511:6520   */\n      dup4\n        /* \"#utility.yul\":6492:6531   */\n      tag_56\n      jump\t// in\n    tag_139:\n        /* \"#utility.yul\":6480:6531   */\n      swap6\n      pop\n        /* \"#utility.yul\":6564:6568   */\n      dup1\n        /* \"#utility.yul\":6560:6569   */\n      not\n        /* \"#utility.yul\":6553:6558   */\n      dup5\n        /* \"#utility.yul\":6549:6570   */\n      and\n        /* \"#utility.yul\":6540:6570   */\n      swap4\n      pop\n        /* \"#utility.yul\":6613:6617   */\n      dup1\n        /* \"#utility.yul\":6603:6611   */\n      dup7\n        /* \"#utility.yul\":6599:6618   */\n      and\n        /* \"#utility.yul\":6592:6597   */\n      dup5\n        /* \"#utility.yul\":6589:6619   */\n      or\n        /* \"#utility.yul\":6579:6619   */\n      swap3\n      pop\n        /* \"#utility.yul\":6308:6625   */\n      pop\n      pop\n        /* \"#utility.yul\":6232:6625   */\n      swap4\n      swap3\n      pop\n      pop\n      pop\n      jump\t// out\n        /* \"#utility.yul\":6631:6708   */\n    tag_58:\n        /* \"#utility.yul\":6668:6675   */\n      0x00\n        /* \"#utility.yul\":6697:6702   */\n      dup2\n        /* \"#utility.yul\":6686:6702   */\n      swap1\n      pop\n        /* \"#utility.yul\":6631:6708   */\n      swap2\n      swap1\n      pop\n      jump\t// out\n        /* \"#utility.yul\":6714:6774   */\n    tag_59:\n        /* \"#utility.yul\":6742:6745   */\n      0x00\n        /* \"#utility.yul\":6763:6768   */\n      dup2\n        /* \"#utility.yul\":6756:6768   */\n      swap1\n      pop\n        /* \"#utility.yul\":6714:6774   */\n      swap2\n      swap1\n      pop\n      jump\t// out\n        /* \"#utility.yul\":6780:6922   */\n    tag_60:\n        /* \"#utility.yul\":6830:6839   */\n      0x00\n        /* \"#utility.yul\":6863:6916   */\n      tag_143\n        /* \"#utility.yul\":6881:6915   */\n      tag_144\n        /* \"#utility.yul\":6890:6914   */\n      tag_145\n        /* \"#utility.yul\":6908:6913   */\n      dup5\n        /* \"#utility.yul\":6890:6914   */\n      tag_58\n      jump\t// in\n    tag_145:\n        /* \"#utility.yul\":6881:6915   */\n      tag_59\n      jump\t// in\n    tag_144:\n        /* \"#utility.yul\":6863:6916   */\n      tag_58\n      jump\t// in\n    tag_143:\n        /* \"#utility.yul\":6850:6916   */\n      swap1\n      pop\n        /* \"#utility.yul\":6780:6922   */\n      swap2\n      swap1\n      pop\n      jump\t// out\n        /* \"#utility.yul\":6928:7003   */\n    tag_61:\n        /* \"#utility.yul\":6971:6974   */\n      0x00\n        /* \"#utility.yul\":6992:6997   */\n      dup2\n        /* \"#utility.yul\":6985:6997   */\n      swap1\n      pop\n        /* \"#utility.yul\":6928:7003   */\n      swap2\n      swap1\n      pop\n      jump\t// out\n        /* \"#utility.yul\":7009:7278   */\n    tag_62:\n        /* \"#utility.yul\":7119:7158   */\n      tag_148\n        /* \"#utility.yul\":7150:7157   */\n      dup4\n        /* \"#utility.yul\":7119:7158   */\n      tag_60\n      jump\t// in\n    tag_148:\n        /* \"#utility.yul\":7180:7271   */\n      tag_149\n        /* \"#utility.yul\":7229:7270   */\n      tag_150\n        /* \"#utility.yul\":7253:7269   */\n      dup3\n        /* \"#utility.yul\":7229:7270   */\n      tag_61\n      jump\t// in\n    tag_150:\n        /* \"#utility.yul\":7221:7227   */\n      dup5\n        /* \"#utility.yul\":7214:7218   */\n      dup5\n        /* \"#utility.yul\":7208:7219   */\n      sload\n        /* \"#utility.yul\":7180:7271   */\n      tag_57\n      jump\t// in\n    tag_149:\n        /* \"#utility.yul\":7174:7178   */\n      dup3\n        /* \"#utility.yul\":7167:7272   */\n      sstore\n        /* \"#utility.yul\":7085:7278   */\n      pop\n        /* \"#utility.yul\":7009:7278   */\n      pop\n      pop\n      pop\n      jump\t// out\n        /* \"#utility.yul\":7284:7357   */\n    tag_63:\n        /* \"#utility.yul\":7329:7332   */\n      0x00\n        /* \"#utility.yul\":7350:7351   */\n      0x00\n        /* \"#utility.yul\":7343:7351   */\n      swap1\n      pop\n        /* \"#utility.yul\":7284:7357   */\n      swap1\n      jump\t// out\n        /* \"#utility.yul\":7363:7552   */\n    tag_64:\n        /* \"#utility.yul\":7440:7472   */\n      tag_153\n      tag_63\n      jump\t// in\n    tag_153:\n        /* \"#utility.yul\":7481:7546   */\n      tag_154\n        /* \"#utility.yul\":7539:7545   */\n      dup2\n        /* \"#utility.yul\":7531:7537   */\n      dup5\n        /* \"#utility.yul\":7525:7529   */\n      dup5\n        /* \"#utility.yul\":7481:7546   */\n      tag_62\n      jump\t// in\n    tag_154:\n        /* \"#utility.yul\":7416:7552   */\n      pop\n        /* \"#utility.yul\":7363:7552   */\n      pop\n      pop\n      jump\t// out\n        /* \"#utility.yul\":7558:7744   */\n    tag_65:\n        /* \"#utility.yul\":7618:7738   */\n    tag_156:\n        /* \"#utility.yul\":7635:7638   */\n      dup2\n        /* \"#utility.yul\":7628:7633   */\n      dup2\n        /* \"#utility.yul\":7625:7639   */\n      lt\n        /* \"#utility.yul\":7618:7738   */\n      iszero\n      tag_158\n      jumpi\n        /* \"#utility.yul\":7689:7728   */\n      tag_159\n        /* \"#utility.yul\":7726:7727   */\n      0x00\n        /* \"#utility.yul\":7719:7724   */\n      dup3\n        /* \"#utility.yul\":7689:7728   */\n      tag_64\n      jump\t// in\n    tag_159:\n        /* \"#utility.yul\":7662:7663   */\n      0x01\n        /* \"#utility.yul\":7655:7660   */\n      dup2\n        /* \"#utility.yul\":7651:7664   */\n      add\n        /* \"#utility.yul\":7642:7664   */\n      swap1\n      pop\n        /* \"#utility.yul\":7618:7738   */\n      jump(tag_156)\n    tag_158:\n        /* \"#utility.yul\":7558:7744   */\n      pop\n      pop\n      jump\t// out\n        /* \"#utility.yul\":7750:8293   */\n    tag_66:\n        /* \"#utility.yul\":7851:7853   */\n      0x1f\n        /* \"#utility.yul\":7846:7849   */\n      dup3\n        /* \"#utility.yul\":7843:7854   */\n      gt\n        /* \"#utility.yul\":7840:8286   */\n      iszero\n      tag_161\n      jumpi\n        /* \"#utility.yul\":7885:7923   */\n      tag_162\n        /* \"#utility.yul\":7917:7922   */\n      dup2\n        /* \"#utility.yul\":7885:7923   */\n      tag_54\n      jump\t// in\n    tag_162:\n        /* \"#utility.yul\":7969:7998   */\n      tag_163\n        /* \"#utility.yul\":7987:7997   */\n      dup5\n        /* \"#utility.yul\":7969:7998   */\n      tag_55\n      jump\t// in\n    tag_163:\n        /* \"#utility.yul\":7959:7967   */\n      dup2\n        /* \"#utility.yul\":7955:7999   */\n      add\n        /* \"#utility.yul\":8152:8154   */\n      0x20\n        /* \"#utility.yul\":8140:8150   */\n      dup6\n        /* \"#utility.yul\":8137:8155   */\n      lt\n        /* \"#utility.yul\":8134:8183   */\n      iszero\n      tag_164\n      jumpi\n        /* \"#utility.yul\":8173:8181   */\n      dup2\n        /* \"#utility.yul\":8158:8181   */\n      swap1\n      pop\n        /* \"#utility.yul\":8134:8183   */\n    tag_164:\n        /* \"#utility.yul\":8196:8276   */\n      tag_165\n        /* \"#utility.yul\":8252:8274   */\n      tag_166\n        /* \"#utility.yul\":8270:8273   */\n      dup6\n        /* \"#utility.yul\":8252:8274   */\n      tag_55\n      jump\t// in\n    tag_166:\n        /* \"#utility.yul\":8242:8250   */\n      dup4\n        /* \"#utility.yul\":8238:8275   */\n      add\n        /* \"#utility.yul\":8225:8236   */\n      dup3\n        /* \"#utility.yul\":8196:8276   */\n      tag_65\n      jump\t// in\n    tag_165:\n        /* \"#utility.yul\":7855:8286   */\n      pop\n      pop\n        /* \"#utility.yul\":7840:8286   */\n    tag_161:\n        /* \"#utility.yul\":7750:8293   */\n      pop\n      pop\n      pop\n      jump\t// out\n        /* \"#utility.yul\":8299:8416   */\n    tag_67:\n        /* \"#utility.yul\":8353:8361   */\n      0x00\n        /* \"#utility.yul\":8403:8408   */\n      dup3\n        /* \"#utility.yul\":8397:8401   */\n      dup3\n        /* \"#utility.yul\":8393:8409   */\n      shr\n        /* \"#utility.yul\":8372:8409   */\n      swap1\n      pop\n        /* \"#utility.yul\":8299:8416   */\n      swap3\n      swap2\n      pop\n      pop\n      jump\t// out\n        /* \"#utility.yul\":8422:8591   */\n    tag_68:\n        /* \"#utility.yul\":8466:8472   */\n      0x00\n        /* \"#utility.yul\":8499:8550   */\n      tag_169\n        /* \"#utility.yul\":8547:8548   */\n      0x00\n        /* \"#utility.yul\":8543:8549   */\n      not\n        /* \"#utility.yul\":8535:8540   */\n      dup5\n        /* \"#utility.yul\":8532:8533   */\n      0x08\n        /* \"#utility.yul\":8528:8541   */\n      mul\n        /* \"#utility.yul\":8499:8550   */\n      tag_67\n      jump\t// in\n    tag_169:\n        /* \"#utility.yul\":8495:8551   */\n      not\n        /* \"#utility.yul\":8580:8584   */\n      dup1\n        /* \"#utility.yul\":8574:8578   */\n      dup4\n        /* \"#utility.yul\":8570:8585   */\n      and\n        /* \"#utility.yul\":8560:8585   */\n      swap2\n      pop\n        /* \"#utility.yul\":8473:8591   */\n      pop\n        /* \"#utility.yul\":8422:8591   */\n      swap3\n      swap2\n      pop\n      pop\n      jump\t// out\n        /* \"#utility.yul\":8596:8891   */\n    tag_69:\n        /* \"#utility.yul\":8672:8676   */\n      0x00\n        /* \"#utility.yul\":8818:8847   */\n      tag_171\n        /* \"#utility.yul\":8843:8846   */\n      dup4\n        /* \"#utility.yul\":8837:8841   */\n      dup4\n        /* \"#utility.yul\":8818:8847   */\n      tag_68\n      jump\t// in\n    tag_171:\n        /* \"#utility.yul\":8810:8847   */\n      swap2\n      pop\n        /* \"#utility.yul\":8880:8883   */\n      dup3\n        /* \"#utility.yul\":8877:8878   */\n      0x02\n        /* \"#utility.yul\":8873:8884   */\n      mul\n        /* \"#utility.yul\":8867:8871   */\n      dup3\n        /* \"#utility.yul\":8864:8885   */\n      or\n        /* \"#utility.yul\":8856:8885   */\n      swap1\n      pop\n        /* \"#utility.yul\":8596:8891   */\n      swap3\n      swap2\n      pop\n      pop\n      jump\t// out\n        /* \"#utility.yul\":8896:10291   */\n    tag_30:\n        /* \"#utility.yul\":9013:9050   */\n      tag_173\n        /* \"#utility.yul\":9046:9049   */\n      dup3\n        /* \"#utility.yul\":9013:9050   */\n      tag_33\n      jump\t// in\n    tag_173:\n        /* \"#utility.yul\":9115:9133   */\n      0xffffffffffffffff\n        /* \"#utility.yul\":9107:9113   */\n      dup2\n        /* \"#utility.yul\":9104:9134   */\n      gt\n        /* \"#utility.yul\":9101:9157   */\n      iszero\n      tag_174\n      jumpi\n        /* \"#utility.yul\":9137:9155   */\n      tag_175\n      tag_43\n      jump\t// in\n    tag_175:\n        /* \"#utility.yul\":9101:9157   */\n    tag_174:\n        /* \"#utility.yul\":9181:9219   */\n      tag_176\n        /* \"#utility.yul\":9213:9217   */\n      dup3\n        /* \"#utility.yul\":9207:9218   */\n      sload\n        /* \"#utility.yul\":9181:9219   */\n      tag_18\n      jump\t// in\n    tag_176:\n        /* \"#utility.yul\":9266:9333   */\n      tag_177\n        /* \"#utility.yul\":9326:9332   */\n      dup3\n        /* \"#utility.yul\":9318:9324   */\n      dup3\n        /* \"#utility.yul\":9312:9316   */\n      dup6\n        /* \"#utility.yul\":9266:9333   */\n      tag_66\n      jump\t// in\n    tag_177:\n        /* \"#utility.yul\":9360:9361   */\n      0x00\n        /* \"#utility.yul\":9384:9388   */\n      0x20\n        /* \"#utility.yul\":9371:9388   */\n      swap1\n      pop\n        /* \"#utility.yul\":9416:9418   */\n      0x1f\n        /* \"#utility.yul\":9408:9414   */\n      dup4\n        /* \"#utility.yul\":9405:9419   */\n      gt\n        /* \"#utility.yul\":9433:9434   */\n      0x01\n        /* \"#utility.yul\":9428:10046   */\n      dup2\n      eq\n      tag_179\n      jumpi\n        /* \"#utility.yul\":10090:10091   */\n      0x00\n        /* \"#utility.yul\":10107:10113   */\n      dup5\n        /* \"#utility.yul\":10104:10181   */\n      iszero\n      tag_180\n      jumpi\n        /* \"#utility.yul\":10156:10165   */\n      dup3\n        /* \"#utility.yul\":10151:10154   */\n      dup8\n        /* \"#utility.yul\":10147:10166   */\n      add\n        /* \"#utility.yul\":10141:10167   */\n      mload\n        /* \"#utility.yul\":10132:10167   */\n      swap1\n      pop\n        /* \"#utility.yul\":10104:10181   */\n    tag_180:\n        /* \"#utility.yul\":10207:10274   */\n      tag_181\n        /* \"#utility.yul\":10267:10273   */\n      dup6\n        /* \"#utility.yul\":10260:10265   */\n      dup3\n        /* \"#utility.yul\":10207:10274   */\n      tag_69\n      jump\t// in\n    tag_181:\n        /* \"#utility.yul\":10201:10205   */\n      dup7\n        /* \"#utility.yul\":10194:10275   */\n      sstore\n        /* \"#utility.yul\":10063:10285   */\n      pop\n        /* \"#utility.yul\":9398:10285   */\n      jump(tag_178)\n        /* \"#utility.yul\":9428:10046   */\n    tag_179:\n        /* \"#utility.yul\":9480:9484   */\n      0x1f\n        /* \"#utility.yul\":9476:9485   */\n      not\n        /* \"#utility.yul\":9468:9474   */\n      dup5\n        /* \"#utility.yul\":9464:9486   */\n      and\n        /* \"#utility.yul\":9514:9551   */\n      tag_182\n        /* \"#utility.yul\":9546:9550   */\n      dup7\n        /* \"#utility.yul\":9514:9551   */\n      tag_54\n      jump\t// in\n    tag_182:\n        /* \"#utility.yul\":9573:9574   */\n      0x00\n        /* \"#utility.yul\":9587:9795   */\n    tag_183:\n        /* \"#utility.yul\":9601:9608   */\n      dup3\n        /* \"#utility.yul\":9598:9599   */\n      dup2\n        /* \"#utility.yul\":9595:9609   */\n      lt\n        /* \"#utility.yul\":9587:9795   */\n      iszero\n      tag_185\n      jumpi\n        /* \"#utility.yul\":9680:9689   */\n      dup5\n        /* \"#utility.yul\":9675:9678   */\n      dup10\n        /* \"#utility.yul\":9671:9690   */\n      add\n        /* \"#utility.yul\":9665:9691   */\n      mload\n        /* \"#utility.yul\":9657:9663   */\n      dup3\n        /* \"#utility.yul\":9650:9692   */\n      sstore\n        /* \"#utility.yul\":9731:9732   */\n      0x01\n        /* \"#utility.yul\":9723:9729   */\n      dup3\n        /* \"#utility.yul\":9719:9733   */\n      add\n        /* \"#utility.yul\":9709:9733   */\n      swap2\n      pop\n        /* \"#utility.yul\":9778:9780   */\n      0x20\n        /* \"#utility.yul\":9767:9776   */\n      dup6\n        /* \"#utility.yul\":9763:9781   */\n      add\n        /* \"#utility.yul\":9750:9781   */\n      swap5\n      pop\n        /* \"#utility.yul\":9624:9628   */\n      0x20\n        /* \"#utility.yul\":9621:9622   */\n      dup2\n        /* \"#utility.yul\":9617:9629   */\n      add\n        /* \"#utility.yul\":9612:9629   */\n      swap1\n      pop\n        /* \"#utility.yul\":9587:9795   */\n      jump(tag_183)\n    tag_185:\n        /* \"#utility.yul\":9823:9829   */\n      dup7\n        /* \"#utility.yul\":9814:9821   */\n      dup4\n        /* \"#utility.yul\":9811:9830   */\n      lt\n        /* \"#utility.yul\":9808:9987   */\n      iszero\n      tag_186\n      jumpi\n        /* \"#utility.yul\":9881:9890   */\n      dup5\n        /* \"#utility.yul\":9876:9879   */\n      dup10\n        /* \"#utility.yul\":9872:9891   */\n      add\n        /* \"#utility.yul\":9866:9892   */\n      mload\n        /* \"#utility.yul\":9924:9972   */\n      tag_187\n        /* \"#utility.yul\":9966:9970   */\n      0x1f\n        /* \"#utility.yul\":9958:9964   */\n      dup10\n        /* \"#utility.yul\":9954:9971   */\n      and\n        /* \"#utility.yul\":9943:9952   */\n      dup3\n        /* \"#utility.yul\":9924:9972   */\n      tag_68\n      jump\t// in\n    tag_187:\n        /* \"#utility.yul\":9916:9922   */\n      dup4\n        /* \"#utility.yul\":9909:9973   */\n      sstore\n        /* \"#utility.yul\":9831:9987   */\n      pop\n        /* \"#utility.yul\":9808:9987   */\n    tag_186:\n        /* \"#utility.yul\":10033:10034   */\n      0x01\n        /* \"#utility.yul\":10029:10030   */\n      0x02\n        /* \"#utility.yul\":10021:10027   */\n      dup9\n        /* \"#utility.yul\":10017:10031   */\n      mul\n        /* \"#utility.yul\":10013:10035   */\n      add\n        /* \"#utility.yul\":10007:10011   */\n      dup9\n        /* \"#utility.yul\":10000:10036   */\n      sstore\n        /* \"#utility.yul\":9435:10046   */\n      pop\n      pop\n      pop\n        /* \"#utility.yul\":9398:10285   */\n    tag_178:\n      pop\n        /* \"#utility.yul\":8988:10291   */\n      pop\n      pop\n      pop\n        /* \"#utility.yul\":8896:10291   */\n      pop\n      pop\n      jump\t// out\n        /* \"#utility.yul\":10297:10394   */\n    tag_70:\n        /* \"#utility.yul\":10356:10362   */\n      0x00\n        /* \"#utility.yul\":10384:10387   */\n      dup3\n        /* \"#utility.yul\":10374:10387   */\n      swap1\n      pop\n        /* \"#utility.yul\":10297:10394   */\n      swap3\n      swap2\n      pop\n      pop\n      jump\t// out\n        /* \"#utility.yul\":10400:11803   */\n    tag_32:\n        /* \"#utility.yul\":10524:10568   */\n      tag_190\n        /* \"#utility.yul\":10564:10567   */\n      dup4\n        /* \"#utility.yul\":10559:10562   */\n      dup4\n        /* \"#utility.yul\":10524:10568   */\n      tag_70\n      jump\t// in\n    tag_190:\n        /* \"#utility.yul\":10633:10651   */\n      0xffffffffffffffff\n        /* \"#utility.yul\":10625:10631   */\n      dup2\n        /* \"#utility.yul\":10622:10652   */\n      gt\n        /* \"#utility.yul\":10619:10675   */\n      iszero\n      tag_191\n      jumpi\n        /* \"#utility.yul\":10655:10673   */\n      tag_192\n      tag_43\n      jump\t// in\n    tag_192:\n        /* \"#utility.yul\":10619:10675   */\n    tag_191:\n        /* \"#utility.yul\":10699:10737   */\n      tag_193\n        /* \"#utility.yul\":10731:10735   */\n      dup3\n        /* \"#utility.yul\":10725:10736   */\n      sload\n        /* \"#utility.yul\":10699:10737   */\n      tag_18\n      jump\t// in\n    tag_193:\n        /* \"#utility.yul\":10784:10851   */\n      tag_194\n        /* \"#utility.yul\":10844:10850   */\n      dup3\n        /* \"#utility.yul\":10836:10842   */\n      dup3\n        /* \"#utility.yul\":10830:10834   */\n      dup6\n        /* \"#utility.yul\":10784:10851   */\n      tag_66\n      jump\t// in\n    tag_194:\n        /* \"#utility.yul\":10878:10879   */\n      0x00\n        /* \"#utility.yul\":10907:10909   */\n      0x1f\n        /* \"#utility.yul\":10899:10905   */\n      dup4\n        /* \"#utility.yul\":10896:10910   */\n      gt\n        /* \"#utility.yul\":10924:10925   */\n      0x01\n        /* \"#utility.yul\":10919:11551   */\n      dup2\n      eq\n      tag_196\n      jumpi\n        /* \"#utility.yul\":11595:11596   */\n      0x00\n        /* \"#utility.yul\":11612:11618   */\n      dup5\n        /* \"#utility.yul\":11609:11693   */\n      iszero\n      tag_197\n      jumpi\n        /* \"#utility.yul\":11668:11677   */\n      dup3\n        /* \"#utility.yul\":11663:11666   */\n      dup8\n        /* \"#utility.yul\":11659:11678   */\n      add\n        /* \"#utility.yul\":11646:11679   */\n      calldataload\n        /* \"#utility.yul\":11637:11679   */\n      swap1\n      pop\n        /* \"#utility.yul\":11609:11693   */\n    tag_197:\n        /* \"#utility.yul\":11719:11786   */\n      tag_198\n        /* \"#utility.yul\":11779:11785   */\n      dup6\n        /* \"#utility.yul\":11772:11777   */\n      dup3\n        /* \"#utility.yul\":11719:11786   */\n      tag_69\n      jump\t// in\n    tag_198:\n        /* \"#utility.yul\":11713:11717   */\n      dup7\n        /* \"#utility.yul\":11706:11787   */\n      sstore\n        /* \"#utility.yul\":11568:11797   */\n      pop\n        /* \"#utility.yul\":10889:11797   */\n      jump(tag_195)\n        /* \"#utility.yul\":10919:11551   */\n    tag_196:\n        /* \"#utility.yul\":10971:10975   */\n      0x1f\n        /* \"#utility.yul\":10967:10976   */\n      not\n        /* \"#utility.yul\":10959:10965   */\n      dup5\n        /* \"#utility.yul\":10955:10977   */\n      and\n        /* \"#utility.yul\":11005:11042   */\n      tag_199\n        /* \"#utility.yul\":11037:11041   */\n      dup7\n        /* \"#utility.yul\":11005:11042   */\n      tag_54\n      jump\t// in\n    tag_199:\n        /* \"#utility.yul\":11064:11065   */\n      0x00\n        /* \"#utility.yul\":11078:11293   */\n    tag_200:\n        /* \"#utility.yul\":11092:11099   */\n      dup3\n        /* \"#utility.yul\":11089:11090   */\n      dup2\n        /* \"#utility.yul\":11086:11100   */\n      lt\n        /* \"#utility.yul\":11078:11293   */\n      iszero\n      tag_202\n      jumpi\n        /* \"#utility.yul\":11178:11187   */\n      dup5\n        /* \"#utility.yul\":11173:11176   */\n      dup10\n        /* \"#utility.yul\":11169:11188   */\n      add\n        /* \"#utility.yul\":11156:11189   */\n      calldataload\n        /* \"#utility.yul\":11148:11154   */\n      dup3\n        /* \"#utility.yul\":11141:11190   */\n      sstore\n        /* \"#utility.yul\":11229:11230   */\n      0x01\n        /* \"#utility.yul\":11221:11227   */\n      dup3\n        /* \"#utility.yul\":11217:11231   */\n      add\n        /* \"#utility.yul\":11207:11231   */\n      swap2\n      pop\n        /* \"#utility.yul\":11276:11278   */\n      0x20\n        /* \"#utility.yul\":11265:11274   */\n      dup6\n        /* \"#utility.yul\":11261:11279   */\n      add\n        /* \"#utility.yul\":11248:11279   */\n      swap5\n      pop\n        /* \"#utility.yul\":11115:11119   */\n      0x20\n        /* \"#utility.yul\":11112:11113   */\n      dup2\n        /* \"#utility.yul\":11108:11120   */\n      add\n        /* \"#utility.yul\":11103:11120   */\n      swap1\n      pop\n        /* \"#utility.yul\":11078:11293   */\n      jump(tag_200)\n    tag_202:\n        /* \"#utility.yul\":11321:11327   */\n      dup7\n        /* \"#utility.yul\":11312:11319   */\n      dup4\n        /* \"#utility.yul\":11309:11328   */\n      lt\n        /* \"#utility.yul\":11306:11492   */\n      iszero\n      tag_203\n      jumpi\n        /* \"#utility.yul\":11386:11395   */\n      dup5\n        /* \"#utility.yul\":11381:11384   */\n      dup10\n        /* \"#utility.yul\":11377:11396   */\n      add\n        /* \"#utility.yul\":11364:11397   */\n      calldataload\n        /* \"#utility.yul\":11429:11477   */\n      tag_204\n        /* \"#utility.yul\":11471:11475   */\n      0x1f\n        /* \"#utility.yul\":11463:11469   */\n      dup10\n        /* \"#utility.yul\":11459:11476   */\n      and\n        /* \"#utility.yul\":11448:11457   */\n      dup3\n        /* \"#utility.yul\":11429:11477   */\n      tag_68\n      jump\t// in\n    tag_204:\n        /* \"#utility.yul\":11421:11427   */\n      dup4\n        /* \"#utility.yul\":11414:11478   */\n      sstore\n        /* \"#utility.yul\":11329:11492   */\n      pop\n        /* \"#utility.yul\":11306:11492   */\n    tag_203:\n        /* \"#utility.yul\":11538:11539   */\n      0x01\n        /* \"#utility.yul\":11534:11535   */\n      0x02\n        /* \"#utility.yul\":11526:11532   */\n      dup9\n        /* \"#utility.yul\":11522:11536   */\n      mul\n        /* \"#utility.yul\":11518:11540   */\n      add\n        /* \"#utility.yul\":11512:11516   */\n      dup9\n        /* \"#utility.yul\":11505:11541   */\n      sstore\n        /* \"#utility.yul\":10926:11551   */\n      pop\n      pop\n      pop\n        /* \"#utility.yul\":10889:11797   */\n    tag_195:\n      pop\n        /* \"#utility.yul\":10499:11803   */\n      pop\n      pop\n      pop\n        /* \"#utility.yul\":10400:11803   */\n      pop\n      pop\n      pop\n      jump\t// out\n\n    auxdata: 0xa26469706673582212208a23169b1f56d2c5317717bfb33ebc91883a77f1ad1b08c9f7b3604bd317206e64736f6c634300081e0033\n}\n",
				"bytecode": {
					"linkReferences": {},
					"object": "6080604052348015600e575f5ffd5b5061085d8061001c5f395ff3fe608060405234801561000f575f5ffd5b506004361061003f575f3560e01c8063521936e614610043578063b4d1f67214610061578063f641090c1461007f575b5f5ffd5b61004b61009b565b6040516100589190610248565b60405180910390f35b610069610126565b6040516100769190610248565b60405180910390f35b61009960048036038101906100949190610402565b6101b2565b005b5f80546100a7906104a8565b80601f01602080910402602001604051908101604052809291908181526020018280546100d3906104a8565b801561011e5780601f106100f55761010080835404028352916020019161011e565b820191905f5260205f20905b81548152906001019060200180831161010157829003601f168201915b505050505081565b60018054610133906104a8565b80601f016020809104026020016040519081016040528092919081815260200182805461015f906104a8565b80156101aa5780601f10610181576101008083540402835291602001916101aa565b820191905f5260205f20905b81548152906001019060200180831161018d57829003601f168201915b505050505081565b825f90816101c09190610681565b508181600191826101d292919061075a565b50505050565b5f81519050919050565b5f82825260208201905092915050565b8281835e5f83830152505050565b5f601f19601f8301169050919050565b5f61021a826101d8565b61022481856101e2565b93506102348185602086016101f2565b61023d81610200565b840191505092915050565b5f6020820190508181035f8301526102608184610210565b905092915050565b5f604051905090565b5f5ffd5b5f5ffd5b5f5ffd5b5f5ffd5b7f4e487b71000000000000000000000000000000000000000000000000000000005f52604160045260245ffd5b6102b782610200565b810181811067ffffffffffffffff821117156102d6576102d5610281565b5b80604052505050565b5f6102e8610268565b90506102f482826102ae565b919050565b5f67ffffffffffffffff82111561031357610312610281565b5b61031c82610200565b9050602081019050919050565b828183375f83830152505050565b5f610349610344846102f9565b6102df565b9050828152602081018484840111156103655761036461027d565b5b610370848285610329565b509392505050565b5f82601f83011261038c5761038b610279565b5b813561039c848260208601610337565b91505092915050565b5f5ffd5b5f5ffd5b5f5f83601f8401126103c2576103c1610279565b5b8235905067ffffffffffffffff8111156103df576103de6103a5565b5b6020830191508360018202830111156103fb576103fa6103a9565b5b9250929050565b5f5f5f6040848603121561041957610418610271565b5b5f84013567ffffffffffffffff81111561043657610435610275565b5b61044286828701610378565b935050602084013567ffffffffffffffff81111561046357610462610275565b5b61046f868287016103ad565b92509250509250925092565b7f4e487b71000000000000000000000000000000000000000000000000000000005f52602260045260245ffd5b5f60028204905060018216806104bf57607f821691505b6020821081036104d2576104d161047b565b5b50919050565b5f819050815f5260205f209050919050565b5f6020601f8301049050919050565b5f82821b905092915050565b5f600883026105347fffffffffffffffffffffffffffffffffffffffffffffffffffffffffffffffff826104f9565b61053e86836104f9565b95508019841693508086168417925050509392505050565b5f819050919050565b5f819050919050565b5f61058261057d61057884610556565b61055f565b610556565b9050919050565b5f819050919050565b61059b83610568565b6105af6105a782610589565b848454610505565b825550505050565b5f5f905090565b6105c66105b7565b6105d1818484610592565b505050565b5b818110156105f4576105e95f826105be565b6001810190506105d7565b5050565b601f8211156106395761060a816104d8565b610613846104ea565b81016020851015610622578190505b61063661062e856104ea565b8301826105d6565b50505b505050565b5f82821c905092915050565b5f6106595f198460080261063e565b1980831691505092915050565b5f610671838361064a565b9150826002028217905092915050565b61068a826101d8565b67ffffffffffffffff8111156106a3576106a2610281565b5b6106ad82546104a8565b6106b88282856105f8565b5f60209050601f8311600181146106e9575f84156106d7578287015190505b6106e18582610666565b865550610748565b601f1984166106f7866104d8565b5f5b8281101561071e578489015182556001820191506020850194506020810190506106f9565b8683101561073b5784890151610737601f89168261064a565b8355505b6001600288020188555050505b505050505050565b5f82905092915050565b6107648383610750565b67ffffffffffffffff81111561077d5761077c610281565b5b61078782546104a8565b6107928282856105f8565b5f601f8311600181146107bf575f84156107ad578287013590505b6107b78582610666565b86555061081e565b601f1984166107cd866104d8565b5f5b828110156107f4578489013582556001820191506020850194506020810190506107cf565b86831015610811578489013561080d601f89168261064a565b8355505b6001600288020188555050505b5050505050505056fea26469706673582212208a23169b1f56d2c5317717bfb33ebc91883a77f1ad1b08c9f7b3604bd317206e64736f6c634300081e0033",
					"opcodes": "PUSH1 0x80 PUSH1 0x40 MSTORE CALLVALUE DUP1 ISZERO PUSH1 0xE JUMPI PUSH0 PUSH0 REVERT JUMPDEST POP PUSH2 0x85D DUP1 PUSH2 0x1C PUSH0 CODECOPY PUSH0 RETURN INVALID PUSH1 0x80 PUSH1 0x40 MSTORE CALLVALUE DUP1 ISZERO PUSH2 0xF JUMPI PUSH0 PUSH0 REVERT JUMPDEST POP PUSH1 0x4 CALLDATASIZE LT PUSH2 0x3F JUMPI PUSH0 CALLDATALOAD PUSH1 0xE0 SHR DUP1 PUSH4 0x521936E6 EQ PUSH2 0x43 JUMPI DUP1 PUSH4 0xB4D1F672 EQ PUSH2 0x61 JUMPI DUP1 PUSH4 0xF641090C EQ PUSH2 0x7F JUMPI JUMPDEST PUSH0 PUSH0 REVERT JUMPDEST PUSH2 0x4B PUSH2 0x9B JUMP JUMPDEST PUSH1 0x40 MLOAD PUSH2 0x58 SWAP2 SWAP1 PUSH2 0x248 JUMP JUMPDEST PUSH1 0x40 MLOAD DUP1 SWAP2 SUB SWAP1 RETURN JUMPDEST PUSH2 0x69 PUSH2 0x126 JUMP JUMPDEST PUSH1 0x40 MLOAD PUSH2 0x76 SWAP2 SWAP1 PUSH2 0x248 JUMP JUMPDEST PUSH1 0x40 MLOAD DUP1 SWAP2 SUB SWAP1 RETURN JUMPDEST PUSH2 0x99 PUSH1 0x4 DUP1 CALLDATASIZE SUB DUP2 ADD SWAP1 PUSH2 0x94 SWAP2 SWAP1 PUSH2 0x402 JUMP JUMPDEST PUSH2 0x1B2 JUMP JUMPDEST STOP JUMPDEST PUSH0 DUP1 SLOAD PUSH2 0xA7 SWAP1 PUSH2 0x4A8 JUMP JUMPDEST DUP1 PUSH1 0x1F ADD PUSH1 0x20 DUP1 SWAP2 DIV MUL PUSH1 0x20 ADD PUSH1 0x40 MLOAD SWAP1 DUP2 ADD PUSH1 0x40 MSTORE DUP1 SWAP3 SWAP2 SWAP1 DUP2 DUP2 MSTORE PUSH1 0x20 ADD DUP3 DUP1 SLOAD PUSH2 0xD3 SWAP1 PUSH2 0x4A8 JUMP JUMPDEST DUP1 ISZERO PUSH2 0x11E JUMPI DUP1 PUSH1 0x1F LT PUSH2 0xF5 JUMPI PUSH2 0x100 DUP1 DUP4 SLOAD DIV MUL DUP4 MSTORE SWAP2 PUSH1 0x20 ADD SWAP2 PUSH2 0x11E JUMP JUMPDEST DUP3 ADD SWAP2 SWAP1 PUSH0 MSTORE PUSH1 0x20 PUSH0 KECCAK256 SWAP1 JUMPDEST DUP2 SLOAD DUP2 MSTORE SWAP1 PUSH1 0x1 ADD SWAP1 PUSH1 0x20 ADD DUP1 DUP4 GT PUSH2 0x101 JUMPI DUP3 SWAP1 SUB PUSH1 0x1F AND DUP3 ADD SWAP2 JUMPDEST POP POP POP POP POP DUP2 JUMP JUMPDEST PUSH1 0x1 DUP1 SLOAD PUSH2 0x133 SWAP1 PUSH2 0x4A8 JUMP JUMPDEST DUP1 PUSH1 0x1F ADD PUSH1 0x20 DUP1 SWAP2 DIV MUL PUSH1 0x20 ADD PUSH1 0x40 MLOAD SWAP1 DUP2 ADD PUSH1 0x40 MSTORE DUP1 SWAP3 SWAP2 SWAP1 DUP2 DUP2 MSTORE PUSH1 0x20 ADD DUP3 DUP1 SLOAD PUSH2 0x15F SWAP1 PUSH2 0x4A8 JUMP JUMPDEST DUP1 ISZERO PUSH2 0x1AA JUMPI DUP1 PUSH1 0x1F LT PUSH2 0x181 JUMPI PUSH2 0x100 DUP1 DUP4 SLOAD DIV MUL DUP4 MSTORE SWAP2 PUSH1 0x20 ADD SWAP2 PUSH2 0x1AA JUMP JUMPDEST DUP3 ADD SWAP2 SWAP1 PUSH0 MSTORE PUSH1 0x20 PUSH0 KECCAK256 SWAP1 JUMPDEST DUP2 SLOAD DUP2 MSTORE SWAP1 PUSH1 0x1 ADD SWAP1 PUSH1 0x20 ADD DUP1 DUP4 GT PUSH2 0x18D JUMPI DUP3 SWAP1 SUB PUSH1 0x1F AND DUP3 ADD SWAP2 JUMPDEST POP POP POP POP POP DUP2 JUMP JUMPDEST DUP3 PUSH0 SWAP1 DUP2 PUSH2 0x1C0 SWAP2 SWAP1 PUSH2 0x681 JUMP JUMPDEST POP DUP2 DUP2 PUSH1 0x1 SWAP2 DUP3 PUSH2 0x1D2 SWAP3 SWAP2 SWAP1 PUSH2 0x75A JUMP JUMPDEST POP POP POP POP JUMP JUMPDEST PUSH0 DUP2 MLOAD SWAP1 POP SWAP2 SWAP1 POP JUMP JUMPDEST PUSH0 DUP3 DUP3 MSTORE PUSH1 0x20 DUP3 ADD SWAP1 POP SWAP3 SWAP2 POP POP JUMP JUMPDEST DUP3 DUP2 DUP4 MCOPY PUSH0 DUP4 DUP4 ADD MSTORE POP POP POP JUMP JUMPDEST PUSH0 PUSH1 0x1F NOT PUSH1 0x1F DUP4 ADD AND SWAP1 POP SWAP2 SWAP1 POP JUMP JUMPDEST PUSH0 PUSH2 0x21A DUP3 PUSH2 0x1D8 JUMP JUMPDEST PUSH2 0x224 DUP2 DUP6 PUSH2 0x1E2 JUMP JUMPDEST SWAP4 POP PUSH2 0x234 DUP2 DUP6 PUSH1 0x20 DUP7 ADD PUSH2 0x1F2 JUMP JUMPDEST PUSH2 0x23D DUP2 PUSH2 0x200 JUMP JUMPDEST DUP5 ADD SWAP2 POP POP SWAP3 SWAP2 POP POP JUMP JUMPDEST PUSH0 PUSH1 0x20 DUP3 ADD SWAP1 POP DUP2 DUP2 SUB PUSH0 DUP4 ADD MSTORE PUSH2 0x260 DUP2 DUP5 PUSH2 0x210 JUMP JUMPDEST SWAP1 POP SWAP3 SWAP2 POP POP JUMP JUMPDEST PUSH0 PUSH1 0x40 MLOAD SWAP1 POP SWAP1 JUMP JUMPDEST PUSH0 PUSH0 REVERT JUMPDEST PUSH0 PUSH0 REVERT JUMPDEST PUSH0 PUSH0 REVERT JUMPDEST PUSH0 PUSH0 REVERT JUMPDEST PUSH32 0x4E487B7100000000000000000000000000000000000000000000000000000000 PUSH0 MSTORE PUSH1 0x41 PUSH1 0x4 MSTORE PUSH1 0x24 PUSH0 REVERT JUMPDEST PUSH2 0x2B7 DUP3 PUSH2 0x200 JUMP JUMPDEST DUP2 ADD DUP2 DUP2 LT PUSH8 0xFFFFFFFFFFFFFFFF DUP3 GT OR ISZERO PUSH2 0x2D6 JUMPI PUSH2 0x2D5 PUSH2 0x281 JUMP JUMPDEST JUMPDEST DUP1 PUSH1 0x40 MSTORE POP POP POP JUMP JUMPDEST PUSH0 PUSH2 0x2E8 PUSH2 0x268 JUMP JUMPDEST SWAP1 POP PUSH2 0x2F4 DUP3 DUP3 PUSH2 0x2AE JUMP JUMPDEST SWAP2 SWAP1 POP JUMP JUMPDEST PUSH0 PUSH8 0xFFFFFFFFFFFFFFFF DUP3 GT ISZERO PUSH2 0x313 JUMPI PUSH2 0x312 PUSH2 0x281 JUMP JUMPDEST JUMPDEST PUSH2 0x31C DUP3 PUSH2 0x200 JUMP JUMPDEST SWAP1 POP PUSH1 0x20 DUP2 ADD SWAP1 POP SWAP2 SWAP1 POP JUMP JUMPDEST DUP3 DUP2 DUP4 CALLDATACOPY PUSH0 DUP4 DUP4 ADD MSTORE POP POP POP JUMP JUMPDEST PUSH0 PUSH2 0x349 PUSH2 0x344 DUP5 PUSH2 0x2F9 JUMP JUMPDEST PUSH2 0x2DF JUMP JUMPDEST SWAP1 POP DUP3 DUP2 MSTORE PUSH1 0x20 DUP2 ADD DUP5 DUP5 DUP5 ADD GT ISZERO PUSH2 0x365 JUMPI PUSH2 0x364 PUSH2 0x27D JUMP JUMPDEST JUMPDEST PUSH2 0x370 DUP5 DUP3 DUP6 PUSH2 0x329 JUMP JUMPDEST POP SWAP4 SWAP3 POP POP POP JUMP JUMPDEST PUSH0 DUP3 PUSH1 0x1F DUP4 ADD SLT PUSH2 0x38C JUMPI PUSH2 0x38B PUSH2 0x279 JUMP JUMPDEST JUMPDEST DUP2 CALLDATALOAD PUSH2 0x39C DUP5 DUP3 PUSH1 0x20 DUP7 ADD PUSH2 0x337 JUMP JUMPDEST SWAP2 POP POP SWAP3 SWAP2 POP POP JUMP JUMPDEST PUSH0 PUSH0 REVERT JUMPDEST PUSH0 PUSH0 REVERT JUMPDEST PUSH0 PUSH0 DUP4 PUSH1 0x1F DUP5 ADD SLT PUSH2 0x3C2 JUMPI PUSH2 0x3C1 PUSH2 0x279 JUMP JUMPDEST JUMPDEST DUP3 CALLDATALOAD SWAP1 POP PUSH8 0xFFFFFFFFFFFFFFFF DUP2 GT ISZERO PUSH2 0x3DF JUMPI PUSH2 0x3DE PUSH2 0x3A5 JUMP JUMPDEST JUMPDEST PUSH1 0x20 DUP4 ADD SWAP2 POP DUP4 PUSH1 0x1 DUP3 MUL DUP4 ADD GT ISZERO PUSH2 0x3FB JUMPI PUSH2 0x3FA PUSH2 0x3A9 JUMP JUMPDEST JUMPDEST SWAP3 POP SWAP3 SWAP1 POP JUMP JUMPDEST PUSH0 PUSH0 PUSH0 PUSH1 0x40 DUP5 DUP7 SUB SLT ISZERO PUSH2 0x419 JUMPI PUSH2 0x418 PUSH2 0x271 JUMP JUMPDEST JUMPDEST PUSH0 DUP5 ADD CALLDATALOAD PUSH8 0xFFFFFFFFFFFFFFFF DUP2 GT ISZERO PUSH2 0x436 JUMPI PUSH2 0x435 PUSH2 0x275 JUMP JUMPDEST JUMPDEST PUSH2 0x442 DUP7 DUP3 DUP8 ADD PUSH2 0x378 JUMP JUMPDEST SWAP4 POP POP PUSH1 0x20 DUP5 ADD CALLDATALOAD PUSH8 0xFFFFFFFFFFFFFFFF DUP2 GT ISZERO PUSH2 0x463 JUMPI PUSH2 0x462 PUSH2 0x275 JUMP JUMPDEST JUMPDEST PUSH2 0x46F DUP7 DUP3 DUP8 ADD PUSH2 0x3AD JUMP JUMPDEST SWAP3 POP SWAP3 POP POP SWAP3 POP SWAP3 POP SWAP3 JUMP JUMPDEST PUSH32 0x4E487B7100000000000000000000000000000000000000000000000000000000 PUSH0 MSTORE PUSH1 0x22 PUSH1 0x4 MSTORE PUSH1 0x24 PUSH0 REVERT JUMPDEST PUSH0 PUSH1 0x2 DUP3 DIV SWAP1 POP PUSH1 0x1 DUP3 AND DUP1 PUSH2 0x4BF JUMPI PUSH1 0x7F DUP3 AND SWAP2 POP JUMPDEST PUSH1 0x20 DUP3 LT DUP2 SUB PUSH2 0x4D2 JUMPI PUSH2 0x4D1 PUSH2 0x47B JUMP JUMPDEST JUMPDEST POP SWAP2 SWAP1 POP JUMP JUMPDEST PUSH0 DUP2 SWAP1 POP DUP2 PUSH0 MSTORE PUSH1 0x20 PUSH0 KECCAK256 SWAP1 POP SWAP2 SWAP1 POP JUMP JUMPDEST PUSH0 PUSH1 0x20 PUSH1 0x1F DUP4 ADD DIV SWAP1 POP SWAP2 SWAP1 POP JUMP JUMPDEST PUSH0 DUP3 DUP3 SHL SWAP1 POP SWAP3 SWAP2 POP POP JUMP JUMPDEST PUSH0 PUSH1 0x8 DUP4 MUL PUSH2 0x534 PUSH32 0xFFFFFFFFFFFFFFFFFFFFFFFFFFFFFFFFFFFFFFFFFFFFFFFFFFFFFFFFFFFFFFFF DUP3 PUSH2 0x4F9 JUMP JUMPDEST PUSH2 0x53E DUP7 DUP4 PUSH2 0x4F9 JUMP JUMPDEST SWAP6 POP DUP1 NOT DUP5 AND SWAP4 POP DUP1 DUP7 AND DUP5 OR SWAP3 POP POP POP SWAP4 SWAP3 POP POP POP JUMP JUMPDEST PUSH0 DUP2 SWAP1 POP SWAP2 SWAP1 POP JUMP JUMPDEST PUSH0 DUP2 SWAP1 POP SWAP2 SWAP1 POP JUMP JUMPDEST PUSH0 PUSH2 0x582 PUSH2 0x57D PUSH2 0x578 DUP5 PUSH2 0x556 JUMP JUMPDEST PUSH2 0x55F JUMP JUMPDEST PUSH2 0x556 JUMP JUMPDEST SWAP1 POP SWAP2 SWAP1 POP JUMP JUMPDEST PUSH0 DUP2 SWAP1 POP SWAP2 SWAP1 POP JUMP JUMPDEST PUSH2 0x59B DUP4 PUSH2 0x568 JUMP JUMPDEST PUSH2 0x5AF PUSH2 0x5A7 DUP3 PUSH2 0x589 JUMP JUMPDEST DUP5 DUP5 SLOAD PUSH2 0x505 JUMP JUMPDEST DUP3 SSTORE POP POP POP POP JUMP JUMPDEST PUSH0 PUSH0 SWAP1 POP SWAP1 JUMP JUMPDEST PUSH2 0x5C6 PUSH2 0x5B7 JUMP JUMPDEST PUSH2 0x5D1 DUP2 DUP5 DUP5 PUSH2 0x592 JUMP JUMPDEST POP POP POP JUMP JUMPDEST JUMPDEST DUP2 DUP2 LT ISZERO PUSH2 0x5F4 JUMPI PUSH2 0x5E9 PUSH0 DUP3 PUSH2 0x5BE JUMP JUMPDEST PUSH1 0x1 DUP2 ADD SWAP1 POP PUSH2 0x5D7 JUMP JUMPDEST POP POP JUMP JUMPDEST PUSH1 0x1F DUP3 GT ISZERO PUSH2 0x639 JUMPI PUSH2 0x60A DUP2 PUSH2 0x4D8 JUMP JUMPDEST PUSH2 0x613 DUP5 PUSH2 0x4EA JUMP JUMPDEST DUP2 ADD PUSH1 0x20 DUP6 LT ISZERO PUSH2 0x622 JUMPI DUP2 SWAP1 POP JUMPDEST PUSH2 0x636 PUSH2 0x62E DUP6 PUSH2 0x4EA JUMP JUMPDEST DUP4 ADD DUP3 PUSH2 0x5D6 JUMP JUMPDEST POP POP JUMPDEST POP POP POP JUMP JUMPDEST PUSH0 DUP3 DUP3 SHR SWAP1 POP SWAP3 SWAP2 POP POP JUMP JUMPDEST PUSH0 PUSH2 0x659 PUSH0 NOT DUP5 PUSH1 0x8 MUL PUSH2 0x63E JUMP JUMPDEST NOT DUP1 DUP4 AND SWAP2 POP POP SWAP3 SWAP2 POP POP JUMP JUMPDEST PUSH0 PUSH2 0x671 DUP4 DUP4 PUSH2 0x64A JUMP JUMPDEST SWAP2 POP DUP3 PUSH1 0x2 MUL DUP3 OR SWAP1 POP SWAP3 SWAP2 POP POP JUMP JUMPDEST PUSH2 0x68A DUP3 PUSH2 0x1D8 JUMP JUMPDEST PUSH8 0xFFFFFFFFFFFFFFFF DUP2 GT ISZERO PUSH2 0x6A3 JUMPI PUSH2 0x6A2 PUSH2 0x281 JUMP JUMPDEST JUMPDEST PUSH2 0x6AD DUP3 SLOAD PUSH2 0x4A8 JUMP JUMPDEST PUSH2 0x6B8 DUP3 DUP3 DUP6 PUSH2 0x5F8 JUMP JUMPDEST PUSH0 PUSH1 0x20 SWAP1 POP PUSH1 0x1F DUP4 GT PUSH1 0x1 DUP2 EQ PUSH2 0x6E9 JUMPI PUSH0 DUP5 ISZERO PUSH2 0x6D7 JUMPI DUP3 DUP8 ADD MLOAD SWAP1 POP JUMPDEST PUSH2 0x6E1 DUP6 DUP3 PUSH2 0x666 JUMP JUMPDEST DUP7 SSTORE POP PUSH2 0x748 JUMP JUMPDEST PUSH1 0x1F NOT DUP5 AND PUSH2 0x6F7 DUP7 PUSH2 0x4D8 JUMP JUMPDEST PUSH0 JUMPDEST DUP3 DUP2 LT ISZERO PUSH2 0x71E JUMPI DUP5 DUP10 ADD MLOAD DUP3 SSTORE PUSH1 0x1 DUP3 ADD SWAP2 POP PUSH1 0x20 DUP6 ADD SWAP5 POP PUSH1 0x20 DUP2 ADD SWAP1 POP PUSH2 0x6F9 JUMP JUMPDEST DUP7 DUP4 LT ISZERO PUSH2 0x73B JUMPI DUP5 DUP10 ADD MLOAD PUSH2 0x737 PUSH1 0x1F DUP10 AND DUP3 PUSH2 0x64A JUMP JUMPDEST DUP4 SSTORE POP JUMPDEST PUSH1 0x1 PUSH1 0x2 DUP9 MUL ADD DUP9 SSTORE POP POP POP JUMPDEST POP POP POP POP POP POP JUMP JUMPDEST PUSH0 DUP3 SWAP1 POP SWAP3 SWAP2 POP POP JUMP JUMPDEST PUSH2 0x764 DUP4 DUP4 PUSH2 0x750 JUMP JUMPDEST PUSH8 0xFFFFFFFFFFFFFFFF DUP2 GT ISZERO PUSH2 0x77D JUMPI PUSH2 0x77C PUSH2 0x281 JUMP JUMPDEST JUMPDEST PUSH2 0x787 DUP3 SLOAD PUSH2 0x4A8 JUMP JUMPDEST PUSH2 0x792 DUP3 DUP3 DUP6 PUSH2 0x5F8 JUMP JUMPDEST PUSH0 PUSH1 0x1F DUP4 GT PUSH1 0x1 DUP2 EQ PUSH2 0x7BF JUMPI PUSH0 DUP5 ISZERO PUSH2 0x7AD JUMPI DUP3 DUP8 ADD CALLDATALOAD SWAP1 POP JUMPDEST PUSH2 0x7B7 DUP6 DUP3 PUSH2 0x666 JUMP JUMPDEST DUP7 SSTORE POP PUSH2 0x81E JUMP JUMPDEST PUSH1 0x1F NOT DUP5 AND PUSH2 0x7CD DUP7 PUSH2 0x4D8 JUMP JUMPDEST PUSH0 JUMPDEST DUP3 DUP2 LT ISZERO PUSH2 0x7F4 JUMPI DUP5 DUP10 ADD CALLDATALOAD DUP3 SSTORE PUSH1 0x1 DUP3 ADD SWAP2 POP PUSH1 0x20 DUP6 ADD SWAP5 POP PUSH1 0x20 DUP2 ADD SWAP1 POP PUSH2 0x7CF JUMP JUMPDEST DUP7 DUP4 LT ISZERO PUSH2 0x811 JUMPI DUP5 DUP10 ADD CALLDATALOAD PUSH2 0x80D PUSH1 0x1F DUP10 AND DUP3 PUSH2 0x64A JUMP JUMPDEST DUP4 SSTORE POP JUMPDEST PUSH1 0x1 PUSH1 0x2 DUP9 MUL ADD DUP9 SSTORE POP POP POP JUMPDEST POP POP POP POP POP POP POP JUMP INVALID LOG2 PUSH5 0x6970667358 0x22 SLT KECCAK256 DUP11 0x23 AND SWAP12 0x1F JUMP 0xD2 0xC5 BALANCE PUSH24 0x17BFB33EBC91883A77F1AD1B08C9F7B3604BD317206E6473 PUSH16 0x6C634300081E00330000000000000000 "
				},
				"gasEstimates": {
					"creation": {
						"codeDepositCost": "428200",
						"executionCost": "459",
						"totalCost": "428659"
					},
					"external": {
						"store(string,string)": "infinite",
						"storeName()": "infinite",
						"storelname()": "infinite"
					}
				},
				"methodIdentifiers": {
					"store(string,string)": "f641090c",
					"storeName()": "521936e6",
					"storelname()": "b4d1f672"
				}
			},
			"storageLayout": {
				"storage": [
					{
						"astId": 3,
						"contract": "Storage.sol:Storage",
						"label": "storeName",
						"offset": 0,
						"slot": "0",
						"type": "t_string_storage"
					},
					{
						"astId": 5,
						"contract": "Storage.sol:Storage",
						"label": "storelname",
						"offset": 0,
						"slot": "1",
						"type": "t_string_storage"
					}
				],
				"types": {
					"t_string_storage": {
						"encoding": "bytes",
						"label": "string",
						"numberOfBytes": "32"
					}
				}
			},
			"userdoc": {
				"kind": "user",
				"methods": {},
				"version": 1
			}
		}
	}
}